8=FIX.4.4|9=67|35=A|34=1|49=ISLD|52=20061013-12:22:45.155|56=TW|98=0|108=30|141=Y|10=255|8=FIX.4.4|9=55|35=0|34=2|49=ISLD|52=20061013-12:22:45.156|56=TW|112=1|10=170|8=FIX.4.4|9=49|35=5|34=3|49=ISLD|52=20061013-12:22:45.156|56=TW|10=176|