8=FIX.4.1|9=57|35=A|34=1|49=ISLD|52=20061013-12:19:52|56=TW|98=0|108=30|10=009|8=FIX.4.1|9=89|35=3|34=2|49=ISLD|52=20061013-12:19:52|56=TW|45=2|58=Tag specified without a value (115)|10=078|8=FIX.4.1|9=89|35=3|34=3|49=ISLD|52=20061013-12:19:52|56=TW|45=3|58=Tag specified without a value (128)|10=084|8=FIX.4.1|9=97|35=3|34=4|49=ISLD|52=20061013-12:19:52|56=TW|128=JCD|45=4|58=Tag specified without a value (116)|10=252|8=FIX.4.1|9=97|35=3|34=5|49=ISLD|52=20061013-12:19:52|56=TW|115=JCD|45=5|58=Tag specified without a value (129)|10=254|8=FIX.4.1|9=104|35=3|34=6|49=ISLD|52=20061013-12:19:52|56=TW|128=JCD|129=CS|45=6|58=Tag specified without a value (144)|10=150|8=FIX.4.1|9=104|35=3|34=7|49=ISLD|52=20061013-12:19:52|56=TW|115=JCD|116=CS|45=7|58=Tag specified without a value (145)|10=145|8=FIX.4.1|9=45|35=5|34=8|49=ISLD|52=20061013-12:19:52|56=TW|10=232|