8=FIX.4.0|9=57|35=A|34=1|49=ISLD|52=20061013-12:18:56|56=TW|98=0|108=30|10=011|8=FIX.4.0|9=89|35=3|34=2|49=ISLD|52=20061013-12:18:56|56=TW|45=2|58=Tag specified without a value (115)|10=080|8=FIX.4.0|9=89|35=3|34=3|49=ISLD|52=20061013-12:18:56|56=TW|45=3|58=Tag specified without a value (128)|10=086|8=FIX.4.0|9=97|35=3|34=4|49=ISLD|52=20061013-12:18:56|56=TW|128=JCD|45=4|58=Tag specified without a value (116)|10=254|8=FIX.4.0|9=97|35=3|34=5|49=ISLD|52=20061013-12:18:56|56=TW|115=JCD|45=5|58=Tag specified without a value (129)|10=000|8=FIX.4.0|9=45|35=5|34=6|49=ISLD|52=20061013-12:18:56|56=TW|10=232|