8=FIX.4.2|9=61|35=A|34=1|49=ISLD|52=20061013-12:20:49.803|56=TW|98=0|108=30|10=204|8=FIX.4.2|9=107|35=3|34=2|49=ISLD|52=20061013-12:20:49.804|56=TW|45=2|58=Tag specified without a value|371=115|372=D|373=4|10=211|8=FIX.4.2|9=107|35=3|34=3|49=ISLD|52=20061013-12:20:49.804|56=TW|45=3|58=Tag specified without a value|371=128|372=D|373=4|10=217|8=FIX.4.2|9=115|35=3|34=4|49=ISLD|52=20061013-12:20:49.805|56=TW|128=JCD|45=4|58=Tag specified without a value|371=116|372=D|373=4|10=130|8=FIX.4.2|9=115|35=3|34=5|49=ISLD|52=20061013-12:20:49.805|56=TW|115=JCD|45=5|58=Tag specified without a value|371=129|372=D|373=4|10=132|8=FIX.4.2|9=122|35=3|34=6|49=ISLD|52=20061013-12:20:49.806|56=TW|128=JCD|129=CS|45=6|58=Tag specified without a value|371=144|372=D|373=4|10=246|8=FIX.4.2|9=122|35=3|34=7|49=ISLD|52=20061013-12:20:49.806|56=TW|115=JCD|116=CS|45=7|58=Tag specified without a value|371=145|372=D|373=4|10=241|8=FIX.4.2|9=49|35=5|34=8|49=ISLD|52=20061013-12:20:49.807|56=TW|10=184|