8=FIX.4.2|9=70|35=A|34=1|49=CLIENT1|52=20070201-20:09:17.974|56=EXECUTOR|98=0|108=30|10=093|8=FIX.4.2|9=58|35=5|34=2|49=CLIENT1|52=20070201-20:09:17.981|56=EXECUTOR|10=061|8=FIX.4.2|9=70|35=A|34=3|49=CLIENT1|52=20070201-20:09:18.986|56=EXECUTOR|98=0|108=30|10=099|8=FIX.4.2|9=58|35=5|34=4|49=CLIENT1|52=20070201-20:09:18.999|56=EXECUTOR|10=073|8=FIX.4.2|9=70|35=A|34=5|49=CLIENT1|52=20070201-20:09:20.002|56=EXECUTOR|98=0|108=30|10=073|8=FIX.4.2|9=58|35=5|34=6|49=CLIENT1|52=20070201-20:09:20.017|56=EXECUTOR|10=049|8=FIX.4.2|9=70|35=A|34=7|49=CLIENT1|52=20070201-20:09:21.018|56=EXECUTOR|98=0|108=30|10=083|8=FIX.4.2|9=58|35=5|34=8|49=CLIENT1|52=20070201-20:09:21.029|56=EXECUTOR|10=055|8=FIX.4.2|9=70|35=A|34=9|49=CLIENT1|52=20070201-20:09:22.043|56=EXECUTOR|98=0|108=30|10=084|8=FIX.4.2|9=68|35=2|34=10|49=CLIENT1|52=20070201-20:09:22.125|56=EXECUTOR|7=5|16=0|10=219|8=FIX.4.2|9=59|35=0|34=11|49=CLIENT1|52=20070201-20:09:52.123|56=EXECUTOR|10=092|8=FIX.4.2|9=59|35=0|34=12|49=CLIENT1|52=20070201-20:10:22.127|56=EXECUTOR|10=086|8=FIX.4.2|9=71|35=A|34=13|49=CLIENT1|52=20070201-20:13:16.378|56=EXECUTOR|98=0|108=30|10=137|8=FIX.4.2|9=138|35=D|34=14|49=CLIENT1|52=20070201-20:13:25.560|56=EXECUTOR|11=2007-01-19-10|21=1|38=100|40=2|44=1|54=1|55=ZVZZT|59=0|60=20070201-20:13:25|10=134|8=FIX.4.2|9=71|35=A|34=15|49=CLIENT1|52=20070201-20:13:37.958|56=EXECUTOR|98=0|108=30|10=146|8=FIX.4.2|9=69|35=2|34=16|49=CLIENT1|52=20070201-20:13:37.961|56=EXECUTOR|7=14|16=0|10=027|8=FIX.4.2|9=71|35=A|34=17|49=CLIENT1|52=20070201-20:13:41.747|56=EXECUTOR|98=0|108=30|10=139|8=FIX.4.2|9=69|35=2|34=18|49=CLIENT1|52=20070201-20:13:41.750|56=EXECUTOR|7=14|16=0|10=020|8=FIX.4.2|9=71|35=A|34=19|49=CLIENT1|52=20070201-20:13:44.396|56=EXECUTOR|98=0|108=30|10=144|8=FIX.4.2|9=69|35=2|34=20|49=CLIENT1|52=20070201-20:13:44.399|56=EXECUTOR|7=14|16=0|10=025|8=FIX.4.2|9=71|35=A|34=21|49=CLIENT1|52=20070201-20:14:04.020|56=EXECUTOR|98=0|108=30|10=118|8=FIX.4.2|9=69|35=2|34=22|49=CLIENT1|52=20070201-20:14:04.024|56=EXECUTOR|7=14|16=0|10=009|