8=FIX.4.4|9=70|35=A|34=1|49=CLIENT1|52=20070201-20:09:17.977|56=EXECUTOR|98=0|108=30|10=098|8=FIX.4.4|9=58|35=5|34=2|49=CLIENT1|52=20070201-20:09:17.983|56=EXECUTOR|10=065|8=FIX.4.4|9=70|35=A|34=3|49=CLIENT1|52=20070201-20:09:18.996|56=EXECUTOR|98=0|108=30|10=102|8=FIX.4.4|9=58|35=5|34=4|49=CLIENT1|52=20070201-20:09:19.000|56=EXECUTOR|10=049|8=FIX.4.4|9=70|35=A|34=5|49=CLIENT1|52=20070201-20:09:20.005|56=EXECUTOR|98=0|108=30|10=078|8=FIX.4.4|9=58|35=5|34=6|49=CLIENT1|52=20070201-20:09:20.018|56=EXECUTOR|10=052|8=FIX.4.4|9=70|35=A|34=7|49=CLIENT1|52=20070201-20:09:21.020|56=EXECUTOR|98=0|108=30|10=078|8=FIX.4.4|9=58|35=5|34=8|49=CLIENT1|52=20070201-20:09:21.039|56=EXECUTOR|10=058|8=FIX.4.4|9=70|35=A|34=9|49=CLIENT1|52=20070201-20:09:22.046|56=EXECUTOR|98=0|108=30|10=089|8=FIX.4.4|9=68|35=2|34=10|49=CLIENT1|52=20070201-20:09:22.130|56=EXECUTOR|7=5|16=0|10=217|8=FIX.4.4|9=59|35=0|34=11|49=CLIENT1|52=20070201-20:09:52.124|56=EXECUTOR|10=095|8=FIX.4.4|9=59|35=0|34=12|49=CLIENT1|52=20070201-20:10:22.128|56=EXECUTOR|10=089|