8=FIX.4.0|9=66|35=A|34=1|49=CLIENT1|52=20070201-20:09:17|56=EXECUTOR|98=0|108=30|10=142|8=FIX.4.0|9=54|35=5|34=2|49=CLIENT1|52=20070201-20:09:17|56=EXECUTOR|10=103|8=FIX.4.0|9=66|35=A|34=3|49=CLIENT1|52=20070201-20:09:18|56=EXECUTOR|98=0|108=30|10=145|8=FIX.4.0|9=54|35=5|34=4|49=CLIENT1|52=20070201-20:09:18|56=EXECUTOR|10=106|8=FIX.4.0|9=66|35=A|34=5|49=CLIENT1|52=20070201-20:09:20|56=EXECUTOR|98=0|108=30|10=140|8=FIX.4.0|9=54|35=5|34=6|49=CLIENT1|52=20070201-20:09:20|56=EXECUTOR|10=101|8=FIX.4.0|9=66|35=A|34=7|49=CLIENT1|52=20070201-20:09:21|56=EXECUTOR|98=0|108=30|10=143|8=FIX.4.0|9=54|35=5|34=8|49=CLIENT1|52=20070201-20:09:21|56=EXECUTOR|10=104|8=FIX.4.0|9=66|35=A|34=9|49=CLIENT1|52=20070201-20:09:22|56=EXECUTOR|98=0|108=30|10=146|8=FIX.4.0|9=69|35=2|34=10|49=CLIENT1|52=20070201-20:09:22|56=EXECUTOR|7=5|16=999999|10=058|8=FIX.4.0|9=55|35=0|34=11|49=CLIENT1|52=20070201-20:09:52|56=EXECUTOR|10=146|8=FIX.4.0|9=55|35=0|34=12|49=CLIENT1|52=20070201-20:10:22|56=EXECUTOR|10=136|