8=FIX.4.3|9=70|35=A|34=1|49=CLIENT1|52=20070201-20:09:17.975|56=EXECUTOR|98=0|108=30|10=095|8=FIX.4.3|9=58|35=5|34=2|49=CLIENT1|52=20070201-20:09:17.982|56=EXECUTOR|10=063|8=FIX.4.3|9=70|35=A|34=3|49=CLIENT1|52=20070201-20:09:18.994|56=EXECUTOR|98=0|108=30|10=099|8=FIX.4.3|9=58|35=5|34=4|49=CLIENT1|52=20070201-20:09:18.999|56=EXECUTOR|10=074|8=FIX.4.3|9=70|35=A|34=5|49=CLIENT1|52=20070201-20:09:20.004|56=EXECUTOR|98=0|108=30|10=076|8=FIX.4.3|9=58|35=5|34=6|49=CLIENT1|52=20070201-20:09:20.017|56=EXECUTOR|10=050|8=FIX.4.3|9=70|35=A|34=7|49=CLIENT1|52=20070201-20:09:21.019|56=EXECUTOR|98=0|108=30|10=085|8=FIX.4.3|9=58|35=5|34=8|49=CLIENT1|52=20070201-20:09:21.039|56=EXECUTOR|10=057|8=FIX.4.3|9=70|35=A|34=9|49=CLIENT1|52=20070201-20:09:22.045|56=EXECUTOR|98=0|108=30|10=087|8=FIX.4.3|9=68|35=2|34=10|49=CLIENT1|52=20070201-20:09:22.127|56=EXECUTOR|7=5|16=0|10=222|8=FIX.4.3|9=59|35=0|34=11|49=CLIENT1|52=20070201-20:09:52.123|56=EXECUTOR|10=093|8=FIX.4.3|9=59|35=0|34=12|49=CLIENT1|52=20070201-20:10:22.127|56=EXECUTOR|10=087|