8=FIX.4.2|9=72|35=A|34=1|49=CLIENT1|52=20070201-20:09:17.975|56=ORDERMATCH|98=0|108=30|10=218|8=FIX.4.2|9=72|35=A|34=2|49=CLIENT1|52=20070201-20:09:18.987|56=ORDERMATCH|98=0|108=30|10=223|8=FIX.4.2|9=72|35=A|34=3|49=CLIENT1|52=20070201-20:09:20.003|56=ORDERMATCH|98=0|108=30|10=196|8=FIX.4.2|9=72|35=A|34=4|49=CLIENT1|52=20070201-20:09:21.019|56=ORDERMATCH|98=0|108=30|10=205|8=FIX.4.2|9=72|35=A|34=5|49=CLIENT1|52=20070201-20:09:22.043|56=ORDERMATCH|98=0|108=30|10=204|8=FIX.4.2|9=72|35=A|34=6|49=CLIENT1|52=20070201-20:09:23.138|56=ORDERMATCH|98=0|108=30|10=211|8=FIX.4.2|9=72|35=A|34=7|49=CLIENT1|52=20070201-20:09:24.138|56=ORDERMATCH|98=0|108=30|10=213|8=FIX.4.2|9=72|35=A|34=8|49=CLIENT1|52=20070201-20:09:25.138|56=ORDERMATCH|98=0|108=30|10=215|8=FIX.4.2|9=72|35=A|34=9|49=CLIENT1|52=20070201-20:09:26.138|56=ORDERMATCH|98=0|108=30|10=217|8=FIX.4.2|9=73|35=A|34=10|49=CLIENT1|52=20070201-20:09:27.138|56=ORDERMATCH|98=0|108=30|10=003|8=FIX.4.2|9=73|35=A|34=11|49=CLIENT1|52=20070201-20:09:28.138|56=ORDERMATCH|98=0|108=30|10=005|8=FIX.4.2|9=73|35=A|34=12|49=CLIENT1|52=20070201-20:09:29.138|56=ORDERMATCH|98=0|108=30|10=007|8=FIX.4.2|9=73|35=A|34=13|49=CLIENT1|52=20070201-20:09:30.138|56=ORDERMATCH|98=0|108=30|10=000|8=FIX.4.2|9=73|35=A|34=14|49=CLIENT1|52=20070201-20:09:31.138|56=ORDERMATCH|98=0|108=30|10=002|8=FIX.4.2|9=73|35=A|34=15|49=CLIENT1|52=20070201-20:09:32.138|56=ORDERMATCH|98=0|108=30|10=004|8=FIX.4.2|9=73|35=A|34=16|49=CLIENT1|52=20070201-20:09:33.138|56=ORDERMATCH|98=0|108=30|10=006|8=FIX.4.2|9=73|35=A|34=17|49=CLIENT1|52=20070201-20:09:34.138|56=ORDERMATCH|98=0|108=30|10=008|8=FIX.4.2|9=73|35=A|34=18|49=CLIENT1|52=20070201-20:09:35.138|56=ORDERMATCH|98=0|108=30|10=010|8=FIX.4.2|9=73|35=A|34=19|49=CLIENT1|52=20070201-20:09:36.138|56=ORDERMATCH|98=0|108=30|10=012|8=FIX.4.2|9=73|35=A|34=20|49=CLIENT1|52=20070201-20:09:37.138|56=ORDERMATCH|98=0|108=30|10=005|8=FIX.4.2|9=73|35=A|34=21|49=CLIENT1|52=20070201-20:09:38.138|56=ORDERMATCH|98=0|108=30|10=007|8=FIX.4.2|9=73|35=A|34=22|49=CLIENT1|52=20070201-20:09:39.139|56=ORDERMATCH|98=0|108=30|10=010|8=FIX.4.2|9=73|35=A|34=23|49=CLIENT1|52=20070201-20:09:40.139|56=ORDERMATCH|98=0|108=30|10=003|8=FIX.4.2|9=73|35=A|34=24|49=CLIENT1|52=20070201-20:09:41.139|56=ORDERMATCH|98=0|108=30|10=005|8=FIX.4.2|9=73|35=A|34=25|49=CLIENT1|52=20070201-20:09:42.139|56=ORDERMATCH|98=0|108=30|10=007|8=FIX.4.2|9=73|35=A|34=26|49=CLIENT1|52=20070201-20:09:43.139|56=ORDERMATCH|98=0|108=30|10=009|8=FIX.4.2|9=73|35=A|34=27|49=CLIENT1|52=20070201-20:09:44.159|56=ORDERMATCH|98=0|108=30|10=013|8=FIX.4.2|9=73|35=A|34=28|49=CLIENT1|52=20070201-20:09:45.159|56=ORDERMATCH|98=0|108=30|10=015|8=FIX.4.2|9=73|35=A|34=29|49=CLIENT1|52=20070201-20:09:46.159|56=ORDERMATCH|98=0|108=30|10=017|8=FIX.4.2|9=73|35=A|34=30|49=CLIENT1|52=20070201-20:09:47.159|56=ORDERMATCH|98=0|108=30|10=010|8=FIX.4.2|9=73|35=A|34=31|49=CLIENT1|52=20070201-20:09:48.159|56=ORDERMATCH|98=0|108=30|10=012|8=FIX.4.2|9=73|35=A|34=32|49=CLIENT1|52=20070201-20:09:49.159|56=ORDERMATCH|98=0|108=30|10=014|8=FIX.4.2|9=73|35=A|34=33|49=CLIENT1|52=20070201-20:09:50.159|56=ORDERMATCH|98=0|108=30|10=007|8=FIX.4.2|9=73|35=A|34=34|49=CLIENT1|52=20070201-20:09:51.159|56=ORDERMATCH|98=0|108=30|10=009|8=FIX.4.2|9=73|35=A|34=35|49=CLIENT1|52=20070201-20:09:52.169|56=ORDERMATCH|98=0|108=30|10=012|8=FIX.4.2|9=73|35=A|34=36|49=CLIENT1|52=20070201-20:09:53.167|56=ORDERMATCH|98=0|108=30|10=012|8=FIX.4.2|9=73|35=A|34=37|49=CLIENT1|52=20070201-20:09:54.168|56=ORDERMATCH|98=0|108=30|10=015|8=FIX.4.2|9=73|35=A|34=38|49=CLIENT1|52=20070201-20:09:55.168|56=ORDERMATCH|98=0|108=30|10=017|8=FIX.4.2|9=73|35=A|34=39|49=CLIENT1|52=20070201-20:09:56.168|56=ORDERMATCH|98=0|108=30|10=019|8=FIX.4.2|9=73|35=A|34=40|49=CLIENT1|52=20070201-20:09:57.168|56=ORDERMATCH|98=0|108=30|10=012|8=FIX.4.2|9=73|35=A|34=41|49=CLIENT1|52=20070201-20:09:58.168|56=ORDERMATCH|98=0|108=30|10=014|8=FIX.4.2|9=73|35=A|34=42|49=CLIENT1|52=20070201-20:09:59.168|56=ORDERMATCH|98=0|108=30|10=016|8=FIX.4.2|9=73|35=A|34=43|49=CLIENT1|52=20070201-20:10:00.168|56=ORDERMATCH|98=0|108=30|10=251|8=FIX.4.2|9=73|35=A|34=44|49=CLIENT1|52=20070201-20:10:01.168|56=ORDERMATCH|98=0|108=30|10=253|8=FIX.4.2|9=73|35=A|34=45|49=CLIENT1|52=20070201-20:10:02.200|56=ORDERMATCH|98=0|108=30|10=242|8=FIX.4.2|9=73|35=A|34=46|49=CLIENT1|52=20070201-20:10:03.200|56=ORDERMATCH|98=0|108=30|10=244|8=FIX.4.2|9=73|35=A|34=47|49=CLIENT1|52=20070201-20:10:04.200|56=ORDERMATCH|98=0|108=30|10=246|8=FIX.4.2|9=73|35=A|34=48|49=CLIENT1|52=20070201-20:10:05.204|56=ORDERMATCH|98=0|108=30|10=252|8=FIX.4.2|9=73|35=A|34=49|49=CLIENT1|52=20070201-20:10:06.204|56=ORDERMATCH|98=0|108=30|10=254|8=FIX.4.2|9=73|35=A|34=50|49=CLIENT1|52=20070201-20:10:07.212|56=ORDERMATCH|98=0|108=30|10=246|8=FIX.4.2|9=73|35=A|34=51|49=CLIENT1|52=20070201-20:10:08.212|56=ORDERMATCH|98=0|108=30|10=248|8=FIX.4.2|9=73|35=A|34=52|49=CLIENT1|52=20070201-20:10:09.212|56=ORDERMATCH|98=0|108=30|10=250|8=FIX.4.2|9=73|35=A|34=53|49=CLIENT1|52=20070201-20:10:10.212|56=ORDERMATCH|98=0|108=30|10=243|8=FIX.4.2|9=73|35=A|34=54|49=CLIENT1|52=20070201-20:10:11.212|56=ORDERMATCH|98=0|108=30|10=245|8=FIX.4.2|9=73|35=A|34=55|49=CLIENT1|52=20070201-20:10:12.212|56=ORDERMATCH|98=0|108=30|10=247|8=FIX.4.2|9=73|35=A|34=56|49=CLIENT1|52=20070201-20:10:13.213|56=ORDERMATCH|98=0|108=30|10=250|8=FIX.4.2|9=73|35=A|34=57|49=CLIENT1|52=20070201-20:10:14.213|56=ORDERMATCH|98=0|108=30|10=252|8=FIX.4.2|9=73|35=A|34=58|49=CLIENT1|52=20070201-20:10:15.213|56=ORDERMATCH|98=0|108=30|10=254|8=FIX.4.2|9=73|35=A|34=59|49=CLIENT1|52=20070201-20:10:16.213|56=ORDERMATCH|98=0|108=30|10=000|8=FIX.4.2|9=73|35=A|34=60|49=CLIENT1|52=20070201-20:10:17.213|56=ORDERMATCH|98=0|108=30|10=249|8=FIX.4.2|9=73|35=A|34=61|49=CLIENT1|52=20070201-20:10:18.213|56=ORDERMATCH|98=0|108=30|10=251|8=FIX.4.2|9=73|35=A|34=62|49=CLIENT1|52=20070201-20:10:19.213|56=ORDERMATCH|98=0|108=30|10=253|8=FIX.4.2|9=73|35=A|34=63|49=CLIENT1|52=20070201-20:10:20.213|56=ORDERMATCH|98=0|108=30|10=246|8=FIX.4.2|9=73|35=A|34=64|49=CLIENT1|52=20070201-20:10:21.213|56=ORDERMATCH|98=0|108=30|10=248|8=FIX.4.2|9=73|35=A|34=65|49=CLIENT1|52=20070201-20:10:22.213|56=ORDERMATCH|98=0|108=30|10=250|